{
  "contractName": "BrightSpace",
  "abi": [
    {
      "constant": true,
      "inputs": [],
      "name": "name",
      "outputs": [
        {
          "name": "",
          "type": "string"
        }
      ],
      "payable": false,
      "stateMutability": "view",
      "type": "function",
      "signature": "0x06fdde03"
    },
    {
      "constant": true,
      "inputs": [
        {
          "name": "",
          "type": "uint256"
        }
      ],
      "name": "posts",
      "outputs": [
        {
          "name": "id",
          "type": "uint256"
        },
        {
          "name": "content",
          "type": "string"
        },
        {
          "name": "tip",
          "type": "uint256"
        },
        {
          "name": "author",
          "type": "address"
        }
      ],
      "payable": false,
      "stateMutability": "view",
      "type": "function",
      "signature": "0x0b1e7f83"
    },
    {
      "constant": true,
      "inputs": [],
      "name": "postCount",
      "outputs": [
        {
          "name": "",
          "type": "uint256"
        }
      ],
      "payable": false,
      "stateMutability": "view",
      "type": "function",
      "signature": "0x17906c2e"
    },
    {
      "inputs": [],
      "payable": false,
      "stateMutability": "nonpayable",
      "type": "constructor",
      "signature": "constructor"
    },
    {
      "anonymous": false,
      "inputs": [
        {
          "indexed": false,
          "name": "id",
          "type": "uint256"
        },
        {
          "indexed": false,
          "name": "content",
          "type": "string"
        },
        {
          "indexed": false,
          "name": "tip",
          "type": "uint256"
        },
        {
          "indexed": false,
          "name": "author",
          "type": "address"
        }
      ],
      "name": "PostCreated",
      "type": "event",
      "signature": "0xc66336337a24e513f909b3b25119854dba8385d51307dbc7d31d1b2805e19c7e"
    },
    {
      "anonymous": false,
      "inputs": [
        {
          "indexed": false,
          "name": "id",
          "type": "uint256"
        },
        {
          "indexed": false,
          "name": "content",
          "type": "string"
        },
        {
          "indexed": false,
          "name": "tip",
          "type": "uint256"
        },
        {
          "indexed": false,
          "name": "author",
          "type": "address"
        }
      ],
      "name": "PostTipped",
      "type": "event",
      "signature": "0x20988fe475351e75813672abada1dddb7ac67cbbeb81e61e1160b8329d8cdf1c"
    },
    {
      "constant": false,
      "inputs": [
        {
          "name": "_content",
          "type": "string"
        }
      ],
      "name": "createPost",
      "outputs": [],
      "payable": false,
      "stateMutability": "nonpayable",
      "type": "function",
      "signature": "0xc7303c61"
    },
    {
      "constant": false,
      "inputs": [
        {
          "name": "_id",
          "type": "uint256"
        }
      ],
      "name": "tipPost",
      "outputs": [],
      "payable": true,
      "stateMutability": "payable",
      "type": "function",
      "signature": "0x74d3c1f8"
    }
  ],
  "bytecode": "0x6080604052600060015534801561001557600080fd5b506040805190810160405280601e81526020017f42726967687420737061636520666f7220796f75722074686f7567687473000081525060009080519060200190610061929190610067565b5061010c565b828054600181600116156101000203166002900490600052602060002090601f016020900481019282601f106100a857805160ff19168380011785556100d6565b828001600101855582156100d6579182015b828111156100d55782518255916020019190600101906100ba565b5b5090506100e391906100e7565b5090565b61010991905b808211156101055760008160009055506001016100ed565b5090565b90565b610ab78061011b6000396000f3fe60806040526004361061006d576000357c0100000000000000000000000000000000000000000000000000000000900463ffffffff16806306fdde03146100725780630b1e7f831461010257806317906c2e146101f757806374d3c1f814610222578063c7303c6114610250575b600080fd5b34801561007e57600080fd5b50610087610318565b6040518080602001828103825283818151815260200191508051906020019080838360005b838110156100c75780820151818401526020810190506100ac565b50505050905090810190601f1680156100f45780820380516001836020036101000a031916815260200191505b509250505060405180910390f35b34801561010e57600080fd5b5061013b6004803603602081101561012557600080fd5b81019080803590602001909291905050506103b6565b60405180858152602001806020018481526020018373ffffffffffffffffffffffffffffffffffffffff1673ffffffffffffffffffffffffffffffffffffffff168152602001828103825285818151815260200191508051906020019080838360005b838110156101b957808201518184015260208101905061019e565b50505050905090810190601f1680156101e65780820380516001836020036101000a031916815260200191505b509550505050505060405180910390f35b34801561020357600080fd5b5061020c61049e565b6040518082815260200191505060405180910390f35b61024e6004803603602081101561023857600080fd5b81019080803590602001909291905050506104a4565b005b34801561025c57600080fd5b506103166004803603602081101561027357600080fd5b810190808035906020019064010000000081111561029057600080fd5b8201836020820111156102a257600080fd5b803590602001918460018302840111640100000000831117156102c457600080fd5b91908080601f016020809104026020016040519081016040528093929190818152602001838380828437600081840152601f19601f8201169050808301925050505050505091929192905050506107d4565b005b60008054600181600116156101000203166002900480601f0160208091040260200160405190810160405280929190818152602001828054600181600116156101000203166002900480156103ae5780601f10610383576101008083540402835291602001916103ae565b820191906000526020600020905b81548152906001019060200180831161039157829003601f168201915b505050505081565b6002602052806000526040600020600091509050806000015490806001018054600181600116156101000203166002900480601f0160208091040260200160405190810160405280929190818152602001828054600181600116156101000203166002900480156104685780601f1061043d57610100808354040283529160200191610468565b820191906000526020600020905b81548152906001019060200180831161044b57829003601f168201915b5050505050908060020154908060030160009054906101000a900473ffffffffffffffffffffffffffffffffffffffff16905084565b60015481565b6000811180156104b657506001548111155b15156104c157600080fd5b6104c96109a7565b600260008381526020019081526020016000206080604051908101604052908160008201548152602001600182018054600181600116156101000203166002900480601f01602080910402602001604051908101604052809291908181526020018280546001816001161561010002031660029004801561058b5780601f106105605761010080835404028352916020019161058b565b820191906000526020600020905b81548152906001019060200180831161056e57829003601f168201915b50505050508152602001600282015481526020016003820160009054906101000a900473ffffffffffffffffffffffffffffffffffffffff1673ffffffffffffffffffffffffffffffffffffffff1673ffffffffffffffffffffffffffffffffffffffff168152505090506000816060015190508073ffffffffffffffffffffffffffffffffffffffff166108fc349081150290604051600060405180830381858888f19350505050158015610645573d6000803e3d6000fd5b503482604001510182604001818152505081600260008581526020019081526020016000206000820151816000015560208201518160010190805190602001906106909291906109e6565b506040820151816002015560608201518160030160006101000a81548173ffffffffffffffffffffffffffffffffffffffff021916908373ffffffffffffffffffffffffffffffffffffffff1602179055509050507f20988fe475351e75813672abada1dddb7ac67cbbeb81e61e1160b8329d8cdf1c600154836020015184604001518460405180858152602001806020018481526020018373ffffffffffffffffffffffffffffffffffffffff1673ffffffffffffffffffffffffffffffffffffffff168152602001828103825285818151815260200191508051906020019080838360005b83811015610792578082015181840152602081019050610777565b50505050905090810190601f1680156107bf5780820380516001836020036101000a031916815260200191505b509550505050505060405180910390a1505050565b600081511115156107e457600080fd5b6001600081548092919060010191905055506080604051908101604052806001548152602001828152602001600081526020013373ffffffffffffffffffffffffffffffffffffffff1681525060026000600154815260200190815260200160002060008201518160000155602082015181600101908051906020019061086c9291906109e6565b506040820151816002015560608201518160030160006101000a81548173ffffffffffffffffffffffffffffffffffffffff021916908373ffffffffffffffffffffffffffffffffffffffff1602179055509050507fc66336337a24e513f909b3b25119854dba8385d51307dbc7d31d1b2805e19c7e6001548260003360405180858152602001806020018481526020018373ffffffffffffffffffffffffffffffffffffffff1673ffffffffffffffffffffffffffffffffffffffff168152602001828103825285818151815260200191508051906020019080838360005b8381101561096757808201518184015260208101905061094c565b50505050905090810190601f1680156109945780820380516001836020036101000a031916815260200191505b509550505050505060405180910390a150565b608060405190810160405280600081526020016060815260200160008152602001600073ffffffffffffffffffffffffffffffffffffffff1681525090565b828054600181600116156101000203166002900490600052602060002090601f016020900481019282601f10610a2757805160ff1916838001178555610a55565b82800160010185558215610a55579182015b82811115610a54578251825591602001919060010190610a39565b5b509050610a629190610a66565b5090565b610a8891905b80821115610a84576000816000905550600101610a6c565b5090565b9056fea165627a7a72305820f75ccc36d7c8a0128c6efd61f5fafee778e403bcd0b5b3f9647744bb594bd7720029",
  "source": "pragma solidity >=0.4.21 <0.6.0;\r\n\r\n\r\ncontract BrightSpace{\r\n\r\n    string public name;\r\n\r\n    uint public postCount = 0;\r\n\r\n    mapping(uint => Post) public posts;\r\n\r\n    struct Post {\r\n        uint id;\r\n        string content;\r\n        uint tip;\r\n        address payable author;\r\n    }\r\n    \r\n    event PostCreated (\r\n        uint id,\r\n        string content,\r\n        uint tip,\r\n        address payable author\r\n    );\r\n\r\n    event PostTipped (\r\n        uint id,\r\n        string content,\r\n        uint tip,\r\n        address payable author\r\n    );\r\n\r\n    constructor() public \r\n    {\r\n        name = \"Bright space for your thoughts\";\r\n    }\r\n\r\n    function createPost(string memory _content) public {\r\n        require(bytes(_content).length > 0);\r\n        postCount ++;\r\n        posts[postCount] = Post(postCount, _content, 0, msg.sender);\r\n        emit PostCreated(postCount, _content,0,msg.sender);\r\n    }\r\n\r\n    function tipPost(uint _id) public payable {\r\n        require(_id > 0 && _id <= postCount);\r\n        Post memory _post = posts[_id];\r\n        address payable _author = _post.author;\r\n        address(_author).transfer(msg.value);\r\n        _post.tip = _post.tip + msg.value;\r\n        posts[_id]=_post;\r\n        emit PostTipped(postCount, _post.content, _post.tip, _author);\r\n\r\n    }\r\n}",
  "sourcePath": "C:/Users/deeks/Desktop/bright-space/src/contracts/BrightSpace.sol",
  "compiler": {
    "name": "solc",
    "version": "0.5.0+commit.1d4f565a.Emscripten.clang"
  },
  "schemaVersion": "3.0.1",
  "updatedAt": "2021-08-08T01:05:12.218Z",
  "devdoc": {
    "methods": {}
  },
  "userdoc": {
    "methods": {}
  }
}